:100000000C9462000C948A000C948A000C94D10A1F
:100010000C94D10A0C94D10A0C948A000C948A0096
:100020000C948A000C948A000C948A000C948A0028
:100030000C948A000C948A000C948A000C948A0018
:100040000C942F0A0C948A000C949F0A0C94790A41
:100050000C948A000C948A000C948A000C948A00F8
:100060000C94DB0A0C948A00000000002300260098
:10007000290000000000240027002A0000000000E2
:10008000250028002B0004040404040404040202D4
:100090000202020203030303030301020408102007
:1000A0004080010204081020010204081020000012
:1000B0000008000201000003040700000000000027
:1000C0000000FA0B11241FBECFEFD8E0DEBFCDBF7A
:1000D00011E0A0E0B1E0EAEBF4E202C005900D927D
:1000E000AC39B107D9F724E0ACE9B1E001C01D9209
:1000F000AF31B207E1F710E0C2E6D0E004C02197CB
:10010000FE010E942B11C136D107C9F70E942B0DA9
:100110000C945B120C940000862FE0916402F09125
:100120006502309711F0BA0109940895862FE09185
:100130006202F0916302309711F0BA0109940895B8
:10014000862FE0916002F0916102309711F0BA01C0
:1001500009940895862FE0915E02F0915F02309736
:1001600011F0BA0109940895862FE0915C02F09194
:100170005D02309711F0BA0109940895862FE0913D
:100180005A02F0915B02309711F0BA010994089578
:10019000CB01E0915802F0915902309709F009948F
:1001A0000895862F642FE0916602F09167023097E0
:1001B00011F0A9010994089508951F93CF93DF9337
:1001C000182FEB018091530390915403681779071E
:1001D00060F48091510390915203C80FD91F188386
:1001E00080E0DF91CF911F910895E0918003F0911D
:1001F0008103309711F481E0F4CF81E080935003C4
:1002000080916C0390916D030995809153039091B7
:100210005403C817D90778F7DCCFCF93DF93EC01ED
:10022000FB0130E020E0C901880F991F8C179D0762
:1002300078F44081DB014D93BD0111979181979531
:1002400099279795942B9C932F5F3F4F3296EBCF36
:10025000C901DF91CF910895CF93DF93FC01A08175
:10026000B181109701F1EC01ED91FC911197019092
:10027000F081E02D69EFCD01099588819981DC013C
:10028000ED91FC910190F081E02D62E0099588816B
:100290009981DC01ED91FC910190F081E02D65E008
:1002A000DF91CF910994DF91CF910895833081F050
:1002B00028F4813099F08230A9F008958730A9F0B0
:1002C0008830C9F08430B1F4809180008F7D03C004
:1002D000809180008F7780938000089584B58F7718
:1002E00084BD089584B58F7DFBCF8091B0008F775A
:1002F0008093B00008958091B0008F7DF9CF1F9357
:10030000CF93DF93282F30E0F901E255FF4F84911E
:10031000F901E656FF4FD491F901EA57FF4FC49116
:10032000CC23A9F0162F81110E945601EC2FF0E08A
:10033000EE0FFF1FE458FF4FA591B4918FB7F894CB
:10034000EC91111108C0D095DE23DC938FBFDF91B3
:10035000CF911F910895DE2BF8CFCF93DF9390E0DC
:10036000FC01E656FF4F24918A579F4FFC01849170
:100370008823C9F090E0880F991FFC01EE58FF4FC9
:10038000A591B491FC01E458FF4FC591D49161113E
:100390000DC09FB7F8948C91209582238C9388810F
:1003A000282328839FBFDF91CF910895623051F4B5
:1003B0009FB7F8943C91822F809583238C93E8819A
:1003C0002E2BEFCF8FB7F894EC912E2B2C938FBF61
:1003D000EACF8E50806480937C0080917A008064A4
:1003E00080937A0080917A0086FDFCCF809178001E
:1003F0009091790008953FB7F89480916D029091A3
:100400006E02A0916F02B091700226B5A89B05C044
:100410002F3F19F00196A11DB11D3FBFBA2FA92F83
:10042000982F8827BC01CD01620F711D811D911D80
:1004300042E0660F771F881F991F4A95D1F70895EC
:100440008F929F92AF92BF92CF92DF92EF92FF92E4
:100450006B017C010E94FB014B015C01C114D104C2
:10046000E104F104B9F00E94FB01681979098A09D5
:100470009B09683E73408105910580F321E0C21A13
:10048000D108E108F10888EE880E83E0981EA11CCF
:10049000B11CE4CFFF90EF90DF90CF90BF90AF9072
:1004A0009F908F9008950C94AD010C947F01089556
:1004B0000895009721F0805C9F4F0C942C010895C3
:1004C000AF92BF92CF92DF92EF92FF920F931F9362
:1004D000CF93DF936C017B018B01040F151FEB01A0
:1004E0005E01AE18BF08C017D10759F06991D60157
:1004F000ED91FC910190F081E02DC6010995892BC9
:1005000079F7C501DF91CF911F910F91FF90EF9087
:10051000DF90CF90BF90AF900895FC01538D448D34
:10052000252F30E0842F90E0821B930B541710F09E
:10053000CF96089501970895FC01918D828D9817AB
:1005400061F0A28DAE0FBF2FB11D5D968C91928D83
:100550009F5F9F73928F90E008958FEF9FEF0895B4
:10056000FC01918D828D981731F0828DE80FF11D7D
:10057000858D90E008958FEF9FEF0895FC01918D98
:10058000228D892F90E0805C9F4F821B91098F7391
:100590009927089581E792E00E94BE0221E0892B0D
:1005A00009F420E0822F089580E090E0892B29F063
:1005B0000E94CA0281110C9400000895FC01A48DD0
:1005C000A80FB92FB11DA35ABF4F2C91848D90E075
:1005D00001968F739927848FA689B7892C93A08958
:1005E000B1898C91837080648C93938D848D9813E2
:1005F00006C00288F389E02D80818F7D8083089575
:10060000EF92FF920F931F93CF93DF93EC0181E062
:10061000888F9B8D8C8D98131AC0E889F989808109
:1006200085FF15C09FB7F894EE89FF896083E8893C
:10063000F98980818370806480839FBF81E090E02E
:10064000DF91CF911F910F91FF90EF900895F62EBB
:100650000B8D10E00F5F1F4F0F731127E02E8C8D55
:100660008E110CC00FB607FCFACFE889F98980819A
:1006700085FFF5CFCE010E94DE02F1CFEB8DEC0FAE
:10068000FD2FF11DE35AFF4FF0829FB7F8940B8FB7
:10069000EA89FB8980818062CFCFCF93DF93EC0121
:1006A000888D8823B9F0AA89BB89E889F9898C915A
:1006B00085FD03C0808186FD0DC00FB607FCF7CF16
:1006C0008C9185FFF2CF808185FFEDCFCE010E9416
:1006D000DE02E9CFDF91CF9108955F926F927F9212
:1006E0008F929F92AF92BF92CF92DF92EF92FF9242
:1006F0000F931F93CF93DF935C016901DA015C9044
:10070000232B19F4CC24CA94DC2C8A013A01660EFE
:10071000771ED0E0C0E0F12CE12C87E0882E912CF0
:10072000F50180819181D8016C910C2E01C0660F7A
:100730000A94EAF765296F77DC01ED91FC9101904D
:10074000F081E02D0995BFEFEB1AFB0AF8016081FB
:1007500070E0C4018C1B9D0B02C0759567958A954E
:10076000E2F7562E2196C730D10558F1CE14DF049A
:1007700041F1D5018D919C91652D6F77DC01ED9153
:10078000FC910190F081E02D0995BFEFEB1AFB0A77
:10079000551C5524551C2797E6CFEC14FD0408F48E
:1007A000BFCFDF91CF911F910F91FF90EF90DF901E
:1007B000CF90BF90AF909F908F907F906F905F9001
:1007C00008950F5F1F4F6016710639F7209749F3A0
:1007D000EC14FD0430F7F5018081918161E070E057
:1007E00001C0660FCA95EAF761506521DC01ED9101
:1007F000FC910190F081E02DDF91CF911F910F913D
:10080000FF90EF90DF90CF90BF90AF909F908F9030
:100810007F906F905F9009941F93CF93DF9300D0E8
:10082000CDB7DEB7182F7A83698380914E039091FC
:100830004F030097B9F0DC01ED91FC910190F0813C
:10084000E02D61157044A0F4612F606E099522E0DF
:1008500030E0AE014F5F5F4F62E070E08EE493E006
:100860000E946D030F900F90DF91CF911F9108951B
:1008700060EF099580914E0390914F03DC01ED915B
:10088000FC910190F081E02D6FE6099580914E0377
:1008900090914F03DC01ED91FC910190F081E02DEE
:1008A000612F099522E030E0AE014F5F5F4F62E0BB
:1008B00070E08EE493E00E946D0380914E0390916E
:1008C0004F03DC01ED91FC910190F081E02D67EF89
:1008D0000995C8CFEF92FF920F931F93CF93DF93A9
:1008E000A0914E03B0914F031097D1F17B018C0181
:1008F000ED91FC9111970190F081E02D60EFCD0119
:10090000099580914E0390914F03DC01ED91FC918C
:100910000190F081E02D61E70995E7010E0D1F1DA3
:10092000C017D10759F030E020E0AE0161E070E07F
:100930008EE493E00E946D032196F2CF80914E03E6
:1009400090914F03DC01ED91FC910190F081E02D3D
:1009500067EFDF91CF911F910F91FF90EF90099476
:10096000DF91CF911F910F91FF90EF900895CF925B
:10097000DF92EF92FF920F931F93CF93DF93FC01CF
:10098000E058FF4FE080EE2009F45CC0EC01C05C51
:10099000DF4FA881B981109709F454C0FC01EF57CB
:1009A000FF4FC080D180F60111810081ED91FC9153
:1009B00011970190F081E02D60EFCD0109958881BC
:1009C0009981DC01ED91FC910190F081E02D69E7C6
:1009D000099588819981DC01ED91FC910190F0816C
:1009E000E02D602F099588819981DC01ED91FC91C2
:1009F0000190F081E02D612F0995F12C01E010E0CC
:100A00000F5F1F4FE016F10659F030E020E0A6011D
:100A1000400F511F61E070E0CE010E946D03F0CFE6
:100A200088819981DC01ED91FC910190F081E02DAC
:100A300067EFDF91CF911F910F91FF90EF90DF90C3
:100A4000CF900994DF91CF911F910F91FF90EF907C
:100A5000DF90CF900895009711F00C94B70408959B
:100A600008950895E091570280915602E81730F4F6
:100A7000F0E0E052FE4F808190E008958FEF9FEF0D
:100A8000089590915702809156022FEF3FEF9817EB
:100A900048F4E92FF0E0E052FE4F208130E09F5F04
:100AA00090935702C9010895809156029091570280
:100AB000891B990B089590E080E008952091BD0175
:100AC000260F3327331F21323105ECF42091280201
:100AD000FC0190E080E0243069F082E00895A0916C
:100AE000BD012191AC0143565E4FA40FB52FB11D3E
:100AF0002C930196861798F38091BD01680F60933F
:100B0000BD0180E0089581E00895CF92DF92EF92D9
:100B1000FF920F931F93CF93DF937C01CB018A0148
:100B200020912E02222389F0EB016B01C40ED51E09
:100B3000CC15DD0569F06991D701ED91FC9101902B
:100B4000F081E02DC7010995F3CF642F0E945E0567
:100B5000C801DF91CF911F910F91FF90EF90DF902F
:100B6000CF900895CF93DF931F92CDB7DEB76983FF
:100B700020912E022223F9F020915402203258F0C5
:100B800021E030E0FC013383228390E080E00F908D
:100B9000DF91CF91089580915502E82FF0E0E15D5B
:100BA000FD4F998190838F5F80935502809354020B
:100BB00081E090E0ECCF61E0CE0101960E945E05FD
:100BC000F7CF1092280281E0809327021092020250
:100BD00061E082E10E947F0161E083E10E947F0188
:100BE000E9EBF0E080818E7F808380818D7F808340
:100BF00088E48093B80085E48093BC000895CF9387
:100C0000DF9391E090939C018823B9F0C091B800E4
:100C1000D091BA008091BC008A7B8093BC0060E0D8
:100C200082E10E947F0160E083E10E947F010E94D7
:100C3000E105D093BA00C093B800DF91CF91089539
:100C4000CF92DF92EF92FF920F931F93CF93DF9398
:100C5000FC01C48121E020932E02C0934F02109228
:100C60005502109254028385682B8EEC93E00E940B
:100C7000B205D0915402D13208F092C00E94FB011B
:100C80006B017C0180912802811165C082E0809314
:100C9000280281E0809327028FEF80932602109232
:100CA0002502D0932402AFE2B2E0E4E0F2E080E07B
:100CB000D81385C01092030280910302CC0FC82B79
:100CC000C093030280910202813009F07CC010922F
:100CD00002020E94FB016B017C0180910302809360
:100CE000BB0080912A0290912B02A0912C02B0911E
:100CF0002D02892B8A2B8B2B99F00E94FB010091EE
:100D00002A0210912B0220912C0230912D026C1995
:100D10007D098E099F090617170728073907E0F193
:100D20008091BC0083FDD9CF85EC8093BC000E94EC
:100D3000FB016B017C0180912802823009F445C0DF
:100D4000809126028F3F61F180912602803241F12D
:100D50008091260225C080912A0290912B02A091B9
:100D60002C02B0912D02892B8A2B8B2B09F48ACF70
:100D70000E94FB0100912A0210912B0220912C026B
:100D800030912D026C197D098E099F0906171707EE
:100D90002807390708F076CF809129020E94FF05C5
:100DA000109255021092540210922E02DF91CF91B0
:100DB0001F910F91FF90EF90DF90CF9008959D913C
:100DC00091938F5F75CF85EEB0CF80912A0290917D
:100DD0002B02A0912C02B0912D02892B8A2B8B2BF8
:100DE00009F4A9CF0E94FB0100912A0210912B0265
:100DF00020912C0230912D026C197D098E099F09DA
:100E0000061717072807390708F095CFC5CFEF92C7
:100E1000FF920F931F93CF93DF93E82FF0E0E95EEB
:100E2000FE4F00818FE0E82E81E0F82EC7E0D0E091
:100E300010E0B8010C2E02C0759567950A94E2F790
:100E40006170F70181917F010E947F01219788F7EE
:100E5000DF91CF911F910F91FF90EF90089508952A
:100E60000895089508950895803551F158F4803219
:100E7000D9F018F4803199F008958033C9F08034A6
:100E8000D9F00895803841F128F48036E9F08037B0
:100E9000F9F00895803921F1893931F108951092DE
:100EA000E40381E00C9407071092E40382E0FACF98
:100EB0001092E40383E0F6CF1092E40384E0F2CFD3
:100EC0001092E40385E0EECF1092E40386E0EACFCF
:100ED0001092E40387E0E6CF1092E40388E0E2CFCB
:100EE0001092E40389E0DECF1092E40380E0DACFD1
:100EF000823061F0833099F08130C9F4672B19F0AA
:100F000010920E04089580930E040895672B19F033
:100F100010920304089581E0809303040895672BE1
:100F200019F01092F103089581E08093F103089580
:100F3000CF92DF92EF92FF920F931F93DC018FB756
:100F4000F8944091690250916A0260916B0270912D
:100F50006C028FBF12960D911D912D913C911597AA
:100F60006A017B01C01AD10AE20AF30A16960D91B2
:100F70001D912D913C911997C016D106E206F306FA
:100F8000C8F01A968C911A97811114C012964D933D
:100F90005D936D937C931597ED91FC91119706806D
:100FA000F781E02DCD011F910F91FF90EF90DF9021
:100FB000CF9009941F910F91FF90EF90DF90CF9009
:100FC0000895FC0146835783608771872FB7F89493
:100FD0004091690250916A0260916B0270916C02BB
:100FE0002FBF42835383648375830895CF93DF9328
:100FF0000E94E107CFE0D1E061E081E0C731D8078E
:1010000021F089910E94AD01F7CF82E0DF91CF916D
:101010000C94AD010C94E1070C94E1070F931F931E
:10102000CF93DF93EC012B8530E0F901E255FF4FC0
:101030008491F901E656FF4F0491F901EA57FF4FF9
:101040001491112379F081110E945601E12FF0E0F3
:10105000EE0FFF1FE859FF4FA591B491EC910E23BD
:1010600011E009F410E08C85811791F09D859113B2
:101070000FC0813099F4EE85FF85309709F009950E
:10108000E881F9810084F185E02DCE0109951C8766
:101090001D87DF91CF911F910F910895E889F989FC
:1010A000309709F00995E881F9810284F385E02DF4
:1010B000ECCFCF93DF93EC010E94E10762E08B85D8
:1010C000DF91CF910C94AD010F931F93CF938C01BF
:1010D000C62F0E9420066C2F6460C8010E94200663
:1010E0006C2F6B7FC8010E94200683EC90E0019773
:1010F000F1F7CF911F910F9108950F931F93CF9305
:10110000DF938C01D62FC42F607F642B0E9464086C
:1011100080E1D89FB00111246C2BC801DF91CF91E1
:101120001F910F910C94640841E00E947D0881E0BA
:1011300090E00895CF93DF93CDB7DEB728970FB631
:10114000F894DEBF0FBECDBF98E0E7E0F1E0DE012E
:10115000119601900D929A95E1F7909117049817C6
:1011600008F48FEF90E0880F991F21E030E02C0FFA
:101170003D1F820F931FFC016081606840E08FE09B
:1011800094E028960FB6F894DEBF0FBECDBFDF9176
:10119000CF910C947D088F929F92AF92BF920F9344
:1011A0001F93CF93DF93CDB7DEB7A1970FB6F89417
:1011B000DEBF0FBECDBF19A2423008F44AE08E0157
:1011C0000F5D1F4F842E912CB12CA12CA5019401F1
:1011D0000E94F310E62FB901CA01EA3044F5E05D40
:1011E000D801EE938D01232B242B252B79F790E04A
:1011F00080E0109769F0FD0101900020E9F7319738
:10120000AF014A1B5B0BBD018FE094E00E946002BE
:10121000A1960FB6F894DEBF0FBECDBFDF91CF9180
:101220001F910F91BF90AF909F908F900895E95CB0
:10123000D7CFCF92DF92EF92FF926C01990FEE0819
:10124000FF08F7FE16C041E06DE28FE094E00E94D7
:101250007D0866277727CB016C197D098E099F09C8
:101260004AE00E94CB080196FF90EF90DF90CF906C
:1012700008954AE0C701B601FF90EF90DF90CF904C
:101280000C94CB08009769F0FC0101900020E9F76D
:101290003197AF01481B590BBC018FE094E00C94CF
:1012A000600290E080E00895CF93DF93EC0140E08E
:1012B00061E08FE094E00E947D088BE39FE101975D
:1012C000F1F7CE01DF91CF910C944209CF92DF92DA
:1012D000EF92FF9280E10E94E9017C01BC0182E073
:1012E0000E940C0420ED32E0D7010E9424112FEF60
:1012F00033E040E050E00E94D41069017A0188E6B2
:10130000C81A81E0D80AE108F10881E00E949A0831
:1013100085E891E00E944209C6010E9419098AE805
:1013200091E0FF90EF90DF90CF900C944209CF9224
:10133000DF92EF92FF928FE00E94E9017C01BC01F5
:1013400081E00E940C0420ED32E0D7010E942411BC
:101350002FEF33E040E050E00E94D41069017A01A1
:1013600088E6C81A81E0D80AE108F10880E00E9406
:101370009A088FE891E00E944209C6010E9419096B
:101380008AE891E0FF90EF90DF90CF900C944209B3
:1013900080910001882389F064E971E082E090E0A7
:1013A0000E946A0410920E041092030480910001BE
:1013B00091E0892780930001089567E971E083E057
:1013C00090E00E946A0491E090930E0490930304CD
:1013D00080910001EECF0E94561285ED8093BC00F3
:1013E00080912A0290912B02A0912C02B0912D02A3
:1013F0000796A11DB11D23E0B695A79597958795F2
:101400002A95D1F72091BC0024FD03C01092280238
:10141000089540912A0250912B0260912C02709104
:101420002D02452B462B472B69F30097A105B105EB
:1014300041F02AE22A95F1F700C00197A109B1090C
:10144000E1CF809129020C94FF050C94CD110C94EE
:10145000CD110C94CD110C94CD110C94CD111F9283
:101460000F920FB60F9211242F933F938F939F9358
:10147000AF93BF938091690290916A02A0916B0231
:10148000B0916C023091680223E0230F2D3758F59C
:101490000196A11DB11D209368028093690290936B
:1014A0006A02A0936B02B0936C0280916D029091DE
:1014B0006E02A0916F02B09170020196A11DB11D44
:1014C00080936D0290936E02A0936F02B0937002AE
:1014D000BF91AF919F918F913F912F910F900FBE30
:1014E0000F901F90189526E8230F0296A11DB11D9D
:1014F000D2CF1F920F920FB60F9211242F933F93CA
:101500004F935F936F937F938F939F93AF93BF930B
:10151000EF93FF9381E792E00E94DE02FF91EF914B
:10152000BF91AF919F918F917F916F915F914F91FB
:101530003F912F910F900FBE0F901F9018951F9203
:101540000F920FB60F9211242F938F939F93EF93C7
:10155000FF93E0918102F09182028081E091870205
:10156000F091880282FD1BC0908180918A028F5F7A
:101570008F7320918B02821741F0E0918A02F0E094
:10158000EF58FD4F958F80938A02FF91EF919F91C5
:101590008F912F910F900FBE0F901F901895808103
:1015A000F4CF1F920F920FB60F9211240F900FBE1F
:1015B0000F901F9018951F920F920FB60F92112443
:1015C0002F933F934F935F936F937F938F939F934B
:1015D000AF93BF93EF93FF938091B900887F8036DC
:1015E00009F44AC0F0F5883209F4A7C018F5803133
:1015F00009F49BC0B8F4882309F4F9C0883009F4D1
:1016000094C0FF91EF91BF91AF919F918F917F9186
:101610006F915F914F913F912F910F900FBE0F905F
:101620001F901895883109F488C0803251F7809353
:10163000260214C0803409F49DC040F48033B9F30D
:101640008833F9F68093260285ECB0C0803509F422
:1016500085C0883509F496C0883499F60E94ED0952
:10166000D0CF883909F48CC038F5883729F050F488
:10167000883611F0803729F683E080932802109293
:10168000DF0157C0883809F47BC0803919F08038F1
:1016900009F0B7CF8091DF01803208F071C0E0918E
:1016A000DF0181E08E0F8093DF018091BB00F0E0CD
:1016B000E154FE4F80833DC0803B39F0E0F4803A36
:1016C00009F479C0883A09F09CCF84E0809328021D
:1016D0001092BE011092BD01E0915202F0915302AE
:1016E00009958091BD0181110FC081E08093BD01FA
:1016F00010929D0109C0803C09F4A6CF883C09F4F2
:10170000A3CF883B09F07DCFE091BE0181E08E0F31
:101710008093BE01F0E0E356FE4F80818093BB00D2
:101720009091BE018091BD0129C0809103028093F8
:10173000BB0085EC8093BC0064CF90912502809122
:101740002402981758F5E091250281E08E0F8093CE
:101750002502F0E0EC5FFD4F8081E9CFE0912502AA
:1017600081E08E0F809325028091BB00F0E0EC5F5A
:10177000FD4F808390912502809124029817C8F232
:1017800085E8D8CFE091250281E08E0F8093250275
:101790008091BB00F0E0EC5FFD4F808380912702D9
:1017A00081115CCF81E08093020284EA8093BC00C7
:1017B0001092280226CF85EC8093BC00109228025C
:1017C0008091DF01803230F4E091DF01F0E0E154FC
:1017D000FE4F10826091DF0170E0E0915002F091C5
:1017E00051028FEB91E009951092DF010ACF109220
:1017F000260234CFE1E7F2E01382128248EE53E092
:1018000060E070E0448355836683778385E291E0EE
:101810009183808385EC90E09587848784EC90E0C9
:101820009787868780EC90E0918B808B81EC90E0AD
:10183000938B828B82EC90E0958B848B86EC90E08E
:10184000978B868B118E128E138E148E8EE093E002
:1018500010924F0310924E039093520380935103C2
:1018600020E430E030935403209353031092550347
:101870001092560310925803109257031092590376
:1018800010925B0310925A0310925D0310925C0356
:1018900010925F0310925E03109261031092600336
:1018A0001092630310926203109265031092640316
:1018B000109267031092660310926D0310926C03EE
:1018C00010926F0310926E031092710310927003C6
:1018D000109273031092720310928103109280038E
:1018E0001092500310928E031092900310928F0367
:1018F0001092CD032CE830E03093750320937403ED
:1019000026E930E0309377032093760320EA30E035
:1019100030937903209378032AEA30E030937B03F5
:1019200020937A0324EB30E030937D0320937C03F3
:101930002EEB30E030937F0320937E0328EC30E0E1
:10194000309383032093820321ED30E030938503AD
:10195000209384032BE235E03093870320938603A2
:10196000909369038093680329E532E030938903FB
:101970002093880390936B0380936A038CED90E02F
:1019800090938B0380938A03EEECF3E01382128230
:10199000448355836683778387E391E091838083D3
:1019A000EFE0F4E0138212828DE791E0918380836F
:1019B00087E2848380E1818782E082871386E4E086
:1019C000F4E01286128213821482158284E690E07B
:1019D000A0E0B0E086839783A087B18721E731E05C
:1019E00031832083E9EFF3E012861282138214829E
:1019F000158286839783A087B18725E631E03183FE
:101A00002083E7EEF3E0128612821382148215829D
:101A100086839783A087B18721E1238721E02487EC
:101A2000258717861686118A108A25E531E03183CD
:101A30002083EAEDF3E0128612821382148215826B
:101A400086839783A087B18789E491E0918380831F
:101A5000148613860895789484B5826084BD84B515
:101A6000816084BD85B5826085BD85B5816085BD99
:101A700080916E00816080936E0010928100809151
:101A800081008260809381008091810081608093D9
:101A90008100809180008160809380008091B100FE
:101AA00084608093B1008091B00081608093B00029
:101AB00080917A00846080937A0080917A008260BD
:101AC00080937A0080917A00816080937A0080917F
:101AD0007A00806880937A001092C100E0918102C0
:101AE000F091820282E08083E0917D02F0917E029B
:101AF0001082E0917F02F091800280E18083109259
:101B00008902E0918502F091860286E08083E0916F
:101B10008302F0918402808180618083E09183025E
:101B2000F0918402808188608083E0918302F0914B
:101B30008402808180688083E0918302F091840236
:101B400080818F7D80838091CD0381114FC061E0C2
:101B50008DE00E94AD0162ED70E080E090E00E94B7
:101B6000200261E08DE00E947F0168E270E080E089
:101B700090E00E94200260E08DE00E947F0162ED13
:101B800070E080E090E00E94200261E08DE00E9421
:101B90007F0168E270E080E090E00E94200260E057
:101BA0008DE00E947F016AEF70E080E090E00E948B
:101BB0002002C5E062ED70E080E090E00E9420022B
:101BC00061E08DE00E947F0168E270E080E090E0DB
:101BD0000E94200260E08DE00E947F01C15051F719
:101BE0006DE770E080E090E00E94200281E792E0E3
:101BF00090938D0380938C0390934F0380934E03B7
:101C00008EE493E00E942C018EE093E00E94B704E2
:101C100010925702109256021092550210925402DE
:101C20000E94E10587E592E090935302809352026F
:101C300088E592E090935102809350021092140430
:101C400080911904823018F098E0909314048093E6
:101C5000170462E370E080E090E00E94200260914F
:101C60001A048FE094E00E94200668EE73E080E0A2
:101C700090E00E94200260E38FE094E00E946408FC
:101C8000CBE4D6E4CE010197F1F760E38FE094E076
:101C90000E9464082197F1F760E38FE094E00E94CE
:101CA000640883E592E00197F1F760E28FE094E049
:101CB0000E94640860911404606240E08FE094E048
:101CC0000E947D0884E08093150440E06CE08FE082
:101CD00094E00E947D0840E061E08FE094E00E9483
:101CE0007D08CBE3DFE1CE010197F1F782E080933D
:101CF000160440E066E08FE094E00E947D0840E03A
:101D000062E08FE094E00E947D082197F1F788E07F
:101D100080931A0460E08FE094E00E94200648EC73
:101D200050E060E070E084E094E00E94E107C1E0F0
:101D3000C0930E0448EC50E060E070E089EF93E05F
:101D40000E94E107C093030442E350E060E070E0CA
:101D500087EE93E00E94590844EF51E060E070E0A4
:101D60008AED93E00E94F607C093E40383E592E0D6
:101D700090935D0280935C0285E592E090935B0214
:101D800080935A0284E599E0909359028093580217
:101D900088E797E0909361028093600284E397E084
:101DA0009093670280936602C0E0D0E0DD24D39474
:101DB00002E010E0EE24E394F12C84E094E00E9431
:101DC000980789EF93E00E94980787EE93E00E94BE
:101DD00098078AED93E00E94980780918C03909178
:101DE0008D03DC01ED91FC910084F185E02D0995D6
:101DF000892B09F4CEC180918C0390918D03DC0175
:101E0000ED91FC910284F385E02D09959C018F3FB3
:101E1000980719F3982F80915903882309F492C0E9
:101E2000973F09F07EC010925903A0915103B091E1
:101E300052036C916137C1F1693709F05CC0E091E0
:101E40008603F0918703309741F280915A03909175
:101E50005B038330910560F430E020E050E040E027
:101E600070E060E080916803909169030995B5CFB7
:101E7000BD016D5F7F4F03970E940D01BC016D5F37
:101E80007F4F80E00E94DD00E0915103F09152030A
:101E90009F012D5F3F4F428150E0618170E0E091F2
:101EA0008603F0918703DECF8091820390918303B4
:101EB000892B09F492CFBD016F5F7F4F80915A0348
:101EC00090915B0301970E940D01BC016F5F7F4FF2
:101ED00080E00E94DD0060915103709152036F5FBA
:101EE0007F4FE0918203F091830380916E03909184
:101EF0006F03099572CFE0918403F09185033097C9
:101F000009F46BCF9D012F5F3F4F40915A035091D1
:101F10005B034150510980917003909171030995C1
:101F20005CCF60915A0370915B03822F0E94DD00A9
:101F300080915A0390915B03019690935B03809389
:101F40005A034BCF60915703709158036115710587
:101F500009F4B1C027FDAFC06150710970935803F7
:101F600060935703822F0E94DD0080915703909168
:101F70005803892B09F031CF80915503882309F448
:101F80002CCF803D09F483C040F4803949F1803C76
:101F900009F469C01092550320CF843FE1F1853FD9
:101FA00009F44DC0803EB1F7E0917403F0917503E0
:101FB000309781F3A0915103B09152034C9120E8E6
:101FC000429FC001112411964C91480F592F511D69
:101FD0006091560380915C0390915D030995DACF7F
:101FE000E0917603F09177033097A1F2A09151032D
:101FF000B09152034C9120E8429FC00111241196E8
:102000004C91480F592F511D6091560380915E03EA
:1020100090915F03E3CFE0917C03F0917D033097D3
:1020200009F4B8CFA0915103B09152034C9150E004
:1020300011966C918091640390916503CFCFE091EC
:102040007E03F0917F03309709F4A4CFA091510350
:10205000B09152034C9150E011966C9180916603BF
:1020600090916703BBCFE0917803F09179033097AB
:1020700009F490CFA0915103B09152034C9150E0DC
:10208000609156038091600390916103A7CFE09126
:102090007A03F0917B03309709F47CCFA091510330
:1020A000B09152034C9150E06091560380916203CD
:1020B0009091630393CF903F30F4822F8F70809381
:1020C0005603922F907F903FF1F190F4903CB1F144
:1020D00050F4903909F081CE1093580300935703C0
:1020E000909355037ACE903D49F1903EA9F375CE79
:1020F000993F09F442C028F48CE0890F823060F3E4
:102100006CCE9F3F09F069CE10925803109257038E
:10211000109255031092560390E080E020915303F3
:102120003091540382179307A8F4E0915103F09182
:102130005203E80FF91F10820196F0CFF092580376
:10214000E0925703CDCFD092590310925B031092C7
:102150005A0343CE1092590310925B0310925A0314
:10216000E0918A03F0918B03809172039091730345
:10217000309709F432CE099530CEE0918803F09182
:102180008903309709F429CE80916A0390916B03FB
:10219000F2CF209709F411CE0E94CA02882309F4D5
:1021A0000CCE0E94000009CE052E97FB1EF4009471
:1021B0000E94EB1057FD07D00E94F31007FC03D0DC
:1021C0004EF40C94EB1050954095309521953F4F6F
:1021D0004F4F5F4F089590958095709561957F4F13
:1021E0008F4F9F4F0895A1E21A2EAA1BBB1BFD0122
:1021F0000DC0AA1FBB1FEE1FFF1FA217B307E407E6
:10220000F50720F0A21BB30BE40BF50B661F771F3D
:10221000881F991F1A9469F760957095809590951D
:102220009B01AC01BD01CF010895A29FB001B39FF6
:10223000C001A39F700D811D1124911DB29F700DCF
:10224000811D1124911D08950E941511B7FF089555
:10225000821B930B0895EE0FFF1F0590F491E02D64
:1022600009940F931F93CF93DF938230910510F45D
:1022700082E090E0E0911D04F0911E0430E020E047
:10228000B0E0A0E0309799F42115310509F44AC077
:10229000281B390B24303105D8F58A819B816115C3
:1022A000710589F1FB0193838283FE0111C0408196
:1022B00051810281138148175907E0F048175907E7
:1022C00099F4109761F012960C93129713961C9341
:1022D0003296CF01DF91CF911F910F910895009316
:1022E0001D0410931E04F4CF2115310551F042173F
:1022F000530738F0A901DB019A01BD01DF01F801A4
:10230000C1CFEF01F9CF90931E0480931D04CDCF70
:10231000FE01E20FF31F819391932250310939831B
:102320002883D7CF20911B0430911C04232B41F428
:10233000209103013091040130931C0420931B046D
:1023400020910101309102012115310541F42DB791
:102350003EB74091050150910601241B350BE091D9
:102360001B04F0911C04E217F307A0F42E1B3F0B93
:102370002817390778F0AC014E5F5F4F24173507F7
:1023800048F04E0F5F1F50931C0440931B04819331
:1023900091939FCFF0E0E0E09CCFCF93DF93009745
:1023A000E9F0FC01329713821282A0911D04B091D2
:1023B0001E04ED0130E020E01097A1F4208131816E
:1023C000820F931F20911B0430911C04281739079A
:1023D00009F061C0F0931C04E0931B04DF91CF91DE
:1023E0000895EA01CE17DF07E8F54A815B819E0177
:1023F00041155105B1F7E901FB83EA8349915991F0
:10240000C40FD51FEC17FD0761F4808191810296FE
:10241000840F951FE90199838883828193819B832F
:102420008A83F0E0E0E012968D919C9113970097DB
:10243000B9F52D913C911197CD010296820F931F12
:1024400020911B0430911C042817390739F6309766
:1024500051F510921E0410921D04B0931C04A09319
:102460001B04BCCFD383C28340815181840F951F4D
:10247000C817D90761F44E5F5F4F88819981480F73
:10248000591F518340838A819B81938382832115C5
:10249000310509F0B0CFF0931E04E0931D049ECFE8
:1024A000FD01DC01C0CF13821282D7CF81E090E022
:0A24B000F8940C945B12F894FFCF2F
:1024BA000100001F048000000040001400540009BD
:1024CA00080506070A0B04FC60DAF266B6BEE0FEEF
:1024DA00F600000000000360028D024D03BE029C5C
:1024EA0002B00200000000B20585055B0531055403
:1024FA00054105320500000000F6072F072D0A30B6
:10250A000500000000590831072B0A0E08C80931D6
:10251A0005000000000A083207290A6609000000BF
:10252A00000C083307270A97090000000094086086
:10253A00025B05300559203D20002020202000584C
:0C254A00203D20004F4E004F4646000090
:00000001FF
